{
  "contractName": "SwapContract",
  "abi": [
    {
      "anonymous": false,
      "inputs": [
        {
          "indexed": false,
          "internalType": "uint256",
          "name": "_fundValue",
          "type": "uint256"
        },
        {
          "indexed": false,
          "internalType": "address payable",
          "name": "_owner",
          "type": "address"
        },
        {
          "indexed": false,
          "internalType": "bool",
          "name": "_status",
          "type": "bool"
        },
        {
          "indexed": false,
          "internalType": "address payable",
          "name": "_receiver",
          "type": "address"
        },
        {
          "indexed": false,
          "internalType": "bool",
          "name": "_verified",
          "type": "bool"
        },
        {
          "indexed": false,
          "internalType": "bool",
          "name": "_refunded",
          "type": "bool"
        },
        {
          "indexed": false,
          "internalType": "address payable",
          "name": "_expected",
          "type": "address"
        }
      ],
      "name": "detailsFetched",
      "type": "event"
    },
    {
      "anonymous": false,
      "inputs": [
        {
          "indexed": false,
          "internalType": "uint256",
          "name": "_fundValue",
          "type": "uint256"
        },
        {
          "indexed": false,
          "internalType": "address payable",
          "name": "_owner",
          "type": "address"
        },
        {
          "indexed": false,
          "internalType": "bool",
          "name": "_status",
          "type": "bool"
        },
        {
          "indexed": false,
          "internalType": "address payable",
          "name": "_receiver",
          "type": "address"
        },
        {
          "indexed": false,
          "internalType": "bool",
          "name": "_verified",
          "type": "bool"
        },
        {
          "indexed": false,
          "internalType": "bool",
          "name": "_refunded",
          "type": "bool"
        }
      ],
      "name": "fundChecked",
      "type": "event"
    },
    {
      "anonymous": false,
      "inputs": [
        {
          "indexed": false,
          "internalType": "uint256",
          "name": "_currentTransactionId",
          "type": "uint256"
        }
      ],
      "name": "fundReceived",
      "type": "event"
    },
    {
      "inputs": [
        {
          "internalType": "uint256",
          "name": "",
          "type": "uint256"
        }
      ],
      "name": "transactions",
      "outputs": [
        {
          "internalType": "uint256",
          "name": "transactionId",
          "type": "uint256"
        },
        {
          "internalType": "uint256",
          "name": "fundValue",
          "type": "uint256"
        },
        {
          "internalType": "address payable",
          "name": "owner",
          "type": "address"
        },
        {
          "internalType": "bool",
          "name": "status",
          "type": "bool"
        },
        {
          "internalType": "address payable",
          "name": "receiver",
          "type": "address"
        },
        {
          "internalType": "bool",
          "name": "verified",
          "type": "bool"
        },
        {
          "internalType": "uint256",
          "name": "startTime",
          "type": "uint256"
        },
        {
          "internalType": "bool",
          "name": "refunded",
          "type": "bool"
        },
        {
          "internalType": "address payable",
          "name": "expected",
          "type": "address"
        }
      ],
      "stateMutability": "view",
      "type": "function",
      "constant": true
    },
    {
      "inputs": [
        {
          "internalType": "address payable",
          "name": "_receiver",
          "type": "address"
        },
        {
          "internalType": "address payable",
          "name": "_expectedAddress",
          "type": "address"
        }
      ],
      "name": "sendFunds",
      "outputs": [],
      "stateMutability": "payable",
      "type": "function",
      "payable": true
    },
    {
      "inputs": [
        {
          "internalType": "uint256",
          "name": "_transactionId",
          "type": "uint256"
        }
      ],
      "name": "checkFunds",
      "outputs": [],
      "stateMutability": "nonpayable",
      "type": "function"
    },
    {
      "inputs": [
        {
          "internalType": "uint256",
          "name": "_transactionId",
          "type": "uint256"
        }
      ],
      "name": "verifyFunds",
      "outputs": [],
      "stateMutability": "nonpayable",
      "type": "function"
    },
    {
      "inputs": [
        {
          "internalType": "uint256",
          "name": "_transactionId",
          "type": "uint256"
        }
      ],
      "name": "getDetails",
      "outputs": [],
      "stateMutability": "nonpayable",
      "type": "function"
    },
    {
      "inputs": [
        {
          "internalType": "uint256",
          "name": "_transactionId",
          "type": "uint256"
        }
      ],
      "name": "initiateRefunds",
      "outputs": [],
      "stateMutability": "nonpayable",
      "type": "function"
    }
  ],
  "bytecode": "0x60806040526000805534801561001457600080fd5b50611340806100246000396000f3fe6080604052600436106100555760003560e01c80633501537b1461005a5780634749c2b6146100955780635ebf4431146100d05780638022dc7c146101345780639ace38c21461016f578063b93a89f714610286575b600080fd5b34801561006657600080fd5b506100936004803603602081101561007d57600080fd5b81019080803590602001909291905050506102c1565b005b3480156100a157600080fd5b506100ce600480360360208110156100b857600080fd5b8101908080359060200190929190505050610622565b005b610132600480360360408110156100e657600080fd5b81019080803573ffffffffffffffffffffffffffffffffffffffff169060200190929190803573ffffffffffffffffffffffffffffffffffffffff169060200190929190505050610916565b005b34801561014057600080fd5b5061016d6004803603602081101561015757600080fd5b8101908080359060200190929190505050610bd2565b005b34801561017b57600080fd5b506101a86004803603602081101561019257600080fd5b8101908080359060200190929190505050610fc1565b604051808a81526020018981526020018873ffffffffffffffffffffffffffffffffffffffff1673ffffffffffffffffffffffffffffffffffffffff168152602001871515151581526020018673ffffffffffffffffffffffffffffffffffffffff1673ffffffffffffffffffffffffffffffffffffffff16815260200185151515158152602001848152602001831515151581526020018273ffffffffffffffffffffffffffffffffffffffff1673ffffffffffffffffffffffffffffffffffffffff168152602001995050505050505050505060405180910390f35b34801561029257600080fd5b506102bf600480360360208110156102a957600080fd5b8101908080359060200190929190505050611096565b005b6001600082815260200190815260200160002060030160009054906101000a900473ffffffffffffffffffffffffffffffffffffffff1673ffffffffffffffffffffffffffffffffffffffff163373ffffffffffffffffffffffffffffffffffffffff16148061039257506001600082815260200190815260200160002060050160019054906101000a900473ffffffffffffffffffffffffffffffffffffffff1673ffffffffffffffffffffffffffffffffffffffff163373ffffffffffffffffffffffffffffffffffffffff16145b610404576040517f08c379a00000000000000000000000000000000000000000000000000000000081526004018080602001828103825260168152602001807f596f7520617265206e6f7420417574686f72697365640000000000000000000081525060200191505060405180910390fd5b600015156001600083815260200190815260200160002060030160149054906101000a900460ff161515146104a1576040517f08c379a000000000000000000000000000000000000000000000000000000000815260040180806020018281038252601c8152602001807f5472616e73616374696f6e20616c72656164792076657269666965640000000081525060200191505060405180910390fd5b426103846001600084815260200190815260200160002060040154011015610514576040517f08c379a00000000000000000000000000000000000000000000000000000000081526004018080602001828103825260218152602001806112ea6021913960400191505060405180910390fd5b600180600083815260200190815260200160002060030160146101000a81548160ff0219169083151502179055506001600082815260200190815260200160002060030160009054906101000a900473ffffffffffffffffffffffffffffffffffffffff1673ffffffffffffffffffffffffffffffffffffffff166108fc60016000848152602001908152602001600020600101549081150290604051600060405180830381858888f193505050501580156105d4573d6000803e3d6000fd5b50600180600083815260200190815260200160002060020160146101000a81548160ff0219169083151502179055506000600160008381526020019081526020016000206001018190555050565b6001600082815260200190815260200160002060020160009054906101000a900473ffffffffffffffffffffffffffffffffffffffff1673ffffffffffffffffffffffffffffffffffffffff163373ffffffffffffffffffffffffffffffffffffffff1614806106f357506001600082815260200190815260200160002060030160009054906101000a900473ffffffffffffffffffffffffffffffffffffffff1673ffffffffffffffffffffffffffffffffffffffff163373ffffffffffffffffffffffffffffffffffffffff16145b610765576040517f08c379a00000000000000000000000000000000000000000000000000000000081526004018080602001828103825260168152602001807f596f7520617265206e6f7420417574686f72697365640000000000000000000081525060200191505060405180910390fd5b7fd21379b60eed9f6fcd2f686c7e694340c3bee7cefab92cfd2af7da2d75bfa96960016000838152602001908152602001600020600101546001600084815260200190815260200160002060020160009054906101000a900473ffffffffffffffffffffffffffffffffffffffff166001600085815260200190815260200160002060020160149054906101000a900460ff166001600086815260200190815260200160002060030160009054906101000a900473ffffffffffffffffffffffffffffffffffffffff166001600087815260200190815260200160002060030160149054906101000a900460ff166001600088815260200190815260200160002060050160009054906101000a900460ff16604051808781526020018673ffffffffffffffffffffffffffffffffffffffff1673ffffffffffffffffffffffffffffffffffffffff168152602001851515151581526020018473ffffffffffffffffffffffffffffffffffffffff1673ffffffffffffffffffffffffffffffffffffffff1681526020018315151515815260200182151515158152602001965050505050505060405180910390a150565b6000341161098c576040517f08c379a000000000000000000000000000000000000000000000000000000000815260040180806020018281038252600d8152602001807f4e6f206d6f6e65792053656e740000000000000000000000000000000000000081525060200191505060405180910390fd5b60405180610120016040528060005481526020013481526020013373ffffffffffffffffffffffffffffffffffffffff1681526020016000151581526020018373ffffffffffffffffffffffffffffffffffffffff1681526020016000151581526020014281526020016000151581526020018273ffffffffffffffffffffffffffffffffffffffff168152506001600080548152602001908152602001600020600082015181600001556020820151816001015560408201518160020160006101000a81548173ffffffffffffffffffffffffffffffffffffffff021916908373ffffffffffffffffffffffffffffffffffffffff16021790555060608201518160020160146101000a81548160ff02191690831515021790555060808201518160030160006101000a81548173ffffffffffffffffffffffffffffffffffffffff021916908373ffffffffffffffffffffffffffffffffffffffff16021790555060a08201518160030160146101000a81548160ff02191690831515021790555060c0820151816004015560e08201518160050160006101000a81548160ff0219169083151502179055506101008201518160050160016101000a81548173ffffffffffffffffffffffffffffffffffffffff021916908373ffffffffffffffffffffffffffffffffffffffff1602179055509050507fa5c0e5d7d1adf8b31bfb34b85bd4e331990de7e35ad13af203a4b3847300a2406000546040518082815260200191505060405180910390a160008081548092919060010191905055505050565b3373ffffffffffffffffffffffffffffffffffffffff166001600083815260200190815260200160002060020160009054906101000a900473ffffffffffffffffffffffffffffffffffffffff1673ffffffffffffffffffffffffffffffffffffffff1614610ca9576040517f08c379a00000000000000000000000000000000000000000000000000000000081526004018080602001828103825260168152602001807f596f7520617265206e6f7420417574686f72697365640000000000000000000081525060200191505060405180910390fd5b600015156001600083815260200190815260200160002060020160149054906101000a900460ff16151514610d46576040517f08c379a00000000000000000000000000000000000000000000000000000000081526004018080602001828103825260188152602001807f5472616e73616374696f6e20616c726561647920646f6e65000000000000000081525060200191505060405180910390fd5b600015156001600083815260200190815260200160002060050160009054906101000a900460ff16151514610de3576040517f08c379a000000000000000000000000000000000000000000000000000000000815260040180806020018281038252601c8152602001807f5472616e73616374696f6e20616c726561647920726566756e6465640000000081525060200191505060405180910390fd5b6000600160008381526020019081526020016000206001015411610e6f576040517f08c379a00000000000000000000000000000000000000000000000000000000081526004018080602001828103825260108152602001807f4e6f7420656e6f7567682066756e64730000000000000000000000000000000081525060200191505060405180910390fd5b4261038460016000848152602001908152602001600020600401540110610ee1576040517f08c379a00000000000000000000000000000000000000000000000000000000081526004018080602001828103825260388152602001806112b26038913960400191505060405180910390fd5b6001600082815260200190815260200160002060020160009054906101000a900473ffffffffffffffffffffffffffffffffffffffff1673ffffffffffffffffffffffffffffffffffffffff166108fc60016000848152602001908152602001600020600101549081150290604051600060405180830381858888f19350505050158015610f73573d6000803e3d6000fd5b5060006001600083815260200190815260200160002060010181905550600180600083815260200190815260200160002060050160006101000a81548160ff02191690831515021790555050565b60016020528060005260406000206000915090508060000154908060010154908060020160009054906101000a900473ffffffffffffffffffffffffffffffffffffffff16908060020160149054906101000a900460ff16908060030160009054906101000a900473ffffffffffffffffffffffffffffffffffffffff16908060030160149054906101000a900460ff16908060040154908060050160009054906101000a900460ff16908060050160019054906101000a900473ffffffffffffffffffffffffffffffffffffffff16905089565b7f1f76c16a84b1d4bde3f2292acef46f099609f501370b1be0a5eed0a900a7c1ae60016000838152602001908152602001600020600101546001600084815260200190815260200160002060020160009054906101000a900473ffffffffffffffffffffffffffffffffffffffff166001600085815260200190815260200160002060020160149054906101000a900460ff166001600086815260200190815260200160002060030160009054906101000a900473ffffffffffffffffffffffffffffffffffffffff166001600087815260200190815260200160002060030160149054906101000a900460ff166001600088815260200190815260200160002060050160009054906101000a900460ff166001600089815260200190815260200160002060050160019054906101000a900473ffffffffffffffffffffffffffffffffffffffff16604051808881526020018773ffffffffffffffffffffffffffffffffffffffff1673ffffffffffffffffffffffffffffffffffffffff168152602001861515151581526020018573ffffffffffffffffffffffffffffffffffffffff1673ffffffffffffffffffffffffffffffffffffffff16815260200184151515158152602001831515151581526020018273ffffffffffffffffffffffffffffffffffffffff1673ffffffffffffffffffffffffffffffffffffffff16815260200197505050505050505060405180910390a15056fe526566756e642063616e206f6e6c7920626520696e697469617465642061667465722035206d696e73206f66205472616e73616374696f6e4e6f7720796f752063616e206f6e6c792061736b20666f7220526566756e64732ea2646970667358221220a7f9890615d9a9ce3a68de6fa4a05edf3f103e90ccef4ca74e8db94c85aa007f64736f6c63430006030033",
  "source": "pragma solidity ^0.6.3;\r\n\r\ncontract SwapContract\r\n{\r\n    struct transaction\r\n    {   \r\n        uint transactionId; \r\n        uint fundValue;\r\n        address payable owner;\r\n        bool status;\r\n        address payable receiver;\r\n        bool verified;\r\n        uint startTime;\r\n        bool refunded;\r\n        address payable expected;\r\n    }\r\n\r\n    uint256 currentTransactionId = 0;\r\n    event fundReceived(uint _currentTransactionId);\r\n    event fundChecked(uint _fundValue, address payable _owner,bool _status,address payable _receiver, bool _verified, bool _refunded);\r\n    event detailsFetched(uint _fundValue, address payable _owner,bool _status,address payable _receiver, bool _verified, bool _refunded,address payable _expected);\r\n    mapping(uint256 => transaction) public transactions;\r\n    \r\n    function sendFunds(address payable _receiver,address payable _expectedAddress) public payable\r\n    {\r\n        require(msg.value>0,\"No money Sent\");\r\n        transactions[currentTransactionId] = transaction(currentTransactionId, msg.value, msg.sender, false,_receiver,false,now,false,_expectedAddress);\r\n        emit fundReceived(currentTransactionId);\r\n        currentTransactionId++;\r\n    }\r\n    \r\n    function checkFunds(uint256 _transactionId) public\r\n    {\r\n        require(msg.sender==transactions[_transactionId].owner || msg.sender==transactions[_transactionId].receiver, \"You are not Authorised\");\r\n        emit fundChecked(transactions[_transactionId].fundValue, transactions[_transactionId].owner, \r\n        transactions[_transactionId].status,transactions[_transactionId].receiver, transactions[_transactionId].verified,transactions[_transactionId].refunded);\r\n    }\r\n    \r\n    function verifyFunds(uint256 _transactionId) public\r\n    {\r\n        require(msg.sender == transactions[_transactionId].receiver || msg.sender == transactions[_transactionId].expected, \"You are not Authorised\");\r\n        require(transactions[_transactionId].verified==false,\"Transaction already verified\");\r\n        require(transactions[_transactionId].startTime + 900 >= now ,\"Now you can only ask for Refunds.\");\r\n        transactions[_transactionId].verified = true;\r\n        \r\n        transactions[_transactionId].receiver.transfer(transactions[_transactionId].fundValue);\r\n        transactions[_transactionId].status = true;\r\n        transactions[_transactionId].fundValue = 0;\r\n    }\r\n\r\n    function getDetails(uint256 _transactionId) public{\r\n        emit detailsFetched(transactions[_transactionId].fundValue, transactions[_transactionId].owner, \r\n        transactions[_transactionId].status,transactions[_transactionId].receiver, transactions[_transactionId].verified,transactions[_transactionId].refunded,transactions[_transactionId].expected);\r\n    }\r\n    \r\n    function initiateRefunds(uint256 _transactionId) public\r\n    {\r\n        require(transactions[_transactionId].owner==msg.sender, \"You are not Authorised\");\r\n        require(transactions[_transactionId].status==false,\"Transaction already done\");\r\n        require(transactions[_transactionId].refunded==false,\"Transaction already refunded\");\r\n        require(transactions[_transactionId].fundValue>0,\"Not enough funds\");\r\n        require(transactions[_transactionId].startTime + 900 < now ,\"Refund can only be initiated after 5 mins of Transaction\");\r\n        transactions[_transactionId].owner.transfer(transactions[_transactionId].fundValue);\r\n        transactions[_transactionId].fundValue = 0;\r\n        transactions[_transactionId].refunded=true;\r\n    }\r\n}",
  "sourcePath": "F:\\EthereumProjects\\AssetExchange1.0\\src\\contracts\\SwapContract.sol",
  "compiler": {
    "name": "solc",
    "version": "0.6.3+commit.8dda9521.Emscripten.clang"
  },
  "schemaVersion": "3.0.23",
  "updatedAt": "2020-04-19T06:59:03.335Z",
  "networkType": "ethereum",
  "devdoc": {
    "methods": {}
  },
  "userdoc": {
    "methods": {}
  }
}